:1000000075A88075AA0275DB039061007483F09077
:100010006101747DF09061027450F090610374642A
:10002000F0906104746EF090610574ABF09061061D
:1000300074CEF090610774F5F075C70075E4027531
:10004000E50475E60375D50075D48075D30075D2C7
:100050009075D60375D70275DA0475DB0075C41A7E
:100060007586C075C1CC75CC0475EE0475DC12754F
:10007000DD0075CB5275CD0375ED0975EB1175EF8C
:100080000675C30075A2F575A3FF759C41740CF24B
:1000900075C33275A20975A30075A40375C70890CE
:1000A0006180E09062727401F09062717400F0906F
:1000B00062707402F0906273740CF0F0740DF0F0E2
:1000C000F0F0740CF0F0F0F0740EF0F0F0F0740F4B
:1000D000F0F0F0F0740EF0F0F0F0740FF0F0F0F0DB
:1000E000740AF0F0F0F0740BF0F0F0F0740FF0F030
:1000F00090618175ED0375EB327402F07883E274E0
:100100001175C60474117411741174117411741181
:1001100074117411741174117411741174117411B7
:06012000E2E2E275D603E5
:00000001FF
